:100000000C9434000C9446000C9446000C9446006A
:100010000C9446000C9446000C9446000C94460048
:100020000C9446000C9446000C9446000C94460038
:100030000C9446000C9446000C9446000C94460028
:100040000C9446000C9446000C9446000C94460018
:100050000C9446000C9446000C9446000C94460008
:100060000C9446000C94460011241FBECFEFD8E03C
:10007000DEBFCDBF21E0A0E0B1E001C01D92AE30F7
:10008000B207E1F70E94ED000C9440010C940000CF
:10009000209A26982E9A27982F9A089580E4809384
:1000A0007C0087E880937A00089590917C00987F87
:1000B00090937C0090917C008770982B90937C00AB
:1000C00080917A00806480937A0080917A0084FF26
:1000D000FCCF80917A00806180937A0080917800D3
:1000E000909179000895E0E8F0E080818368808352
:1000F000E1E8F0E080818B608083219A0895823D61
:10010000910558F48DEC90E09093890080938800DD
:1001100082E38093000180E32AC08E3F21E09207B2
:1001200058F48AE991E0909389008093880082E3F3
:100130008093000185E31BC0863C22E0920758F4BF
:100140008DEC92E0909389008093880082E3809305
:10015000000189E30CC08130944098F48DEC93E069
:10016000909389008093880083E3809300018093BB
:10017000010180EB8093020183E48093030180E21C
:100180000FC010928900109288008FE480930001C4
:1001900086E4809301018093020180E28093030151
:1001A000809304011092050180E091E0089580930E
:1001B000C4009093C500E2ECF0E08081866080830B
:1001C000E1ECF0E08081886D808308959091C0001B
:1001D00095FFFCCF8093C60008950E9448000E94BE
:1001E0004E000E94730087E690E00E94D7001F999E
:1001F00038C01E9927C02FEF89EF90E02150804032
:100200009040E1F700C00000289A80E00E9455006D
:1002100090930B0180930A010E947F0090930D013F
:1002200080930C01C0E0D0E0E0910C01F0910D0151
:10023000EC0FFD1F80810E94E6002196C630D1059B
:1002400099F714C02FEF89EF90E021508040904043
:10025000E1F700C0000010928900109288002898F1
:10026000C6CF289810928900109288002FEF89EF4E
:1002700090E0215080409040E1F700C00000B7CFEF
:04028000F894FFCF20
:00000001FF
